:03075A0001370064
:1006DB00D3EF9400EE940040147D6E7C00ED1D7002
:0D06EB00011CED4C70F7EF1F70E61E80E360
:0106F80022DF
:100178007FC87E001206DB80117B007A00793A7F07
:10018800521204DF8F08E50860151206A21206272E
:100198001200037F0A7E001206DB12072680DA7B34
:1001A800007A00793A1204648F08E50870CBE4FFFE
:1001B800743A2FF8E6FE74092FF8A6060FBF04F06C
:1001C800E509B4BB13E50AB4880EE50BB41A09E5D2
:1001D8000C64D3700302028DE509B4B313E50AB4C5
:1001E800440EE50BB47009E50C6436700302028D09
:1001F800E509B41513E50AB4E20EE50BB48E09E57A
:100208000C6415700302028DE509B42A10E50AB4DE
:10021800A90BE50BB47406E50C64196068E509B42C
:100228005210E50AB4D40BE50BB46C06E50C64FC7B
:100238006053E509B4B510E50AB4440BE50BB49076
:1002480006E50C6415603EE509B43210E50AB49F72
:100258000BE50BB41306E50C64646029E509B48565
:1002680010E50AB4580BE50BB49006E50C6415606C
:1002780014E509B4951CE50AB43517E50BB47B12EF
:10028800E50CB4150D1207467FA07E0F1206DB128F
:08029800075012066502018106
:1006A200E4F584F585F591F592F5B175B2FF7580A3
:1006B200FF7590FF75B0FF75A0FF75892175985081
:1006C200758DFA758BFAF58CF58AD28CD2A9D28EF9
:0906D200D299D2AFD2ACD2982229
:10071400758911758CFE758A0CD2AFD2A9D28CD290
:02072400B922F8
:03000B000202A04E
:1002A000C0E0C0D075D000C000C002C003C004C010
:1002B00005C006C007E53724FE603214605E146096
:1002C0005B14606024047064D2A7AE38AF39AB070A
:1002D000AA06E4C39BFFE49AFE74019400FDE49433
:1002E00000FC78081203C48F8CE5398029C2A7C3AB
:1002F00074889539FF74139538FAE4C39FFFE49A24
:10030000FE74019400FDE49400FC78081203C48F8D
:100310008CC374889539F404F58A8013758CEC7558
:100320008A78800B758CEC758A78800075370005AB
:1003300037D007D006D005D004D003D002D000D0EB
:04034000D0D0E03207
:0A0746001207147538077539D02228
:0A0750001207147538017539F42200
:0804DF008F0D8B0E8A0F8910AE
:1004E7007D087F081207387D077F0D1205EC7D0315
:1004F7007F14120707850D13752A01752B00752CBC
:1005070000752D13752E00752F007530117A00793F
:100517001312000EEF7023E51264104511701BAB28
:100527000EAA0FA910E513120371AB0EAA0FA9109B
:0C053700900001E51412038380027FFE97
:010543002295
:060464008B0D8A0E890FCA
:10046A00E4F5117D087F08120738E4FD7F0D1205B7
:10047A00EC7D807F0E120738751493751520752A46
:10048A0002752B00752C00752D14752E00752F0022
:10049A007530127A00791412000E8F10E510702B45
:1004AA00FF74142FF8E6AB0DAA0EA90F8F8275837D
:1004BA000012038374142FF8E662110FBF04E2746A
:1004CA00142FF8E6651160037510FE7D807F0E1209
:0404DA000707AF1051
:0104DE0022FB
:10062700D2A100C2A100D2A1007D0F7F011205EC6B
:10063700007D3D7F111205EC7D1E7F2D1205ECE438
:10064700FD7F2C1205EC7D8D7F2A1205EC7D3E7F08
:0E0657002B1205EC7D407F151205EC7F002272
:0605A300AC07AB05E4FE0D
:1005A900E4FEC2A5C2A4EF25E0547E4480FF7D0885
:1005B900EF30E703D38001C392A3D2A5EF25E0FF73
:1005C900C2A5DDEC7D08D2A5EE25E0FEA2A2E433AA
:0C05D9004206C2A5DDF0D2A4D2A5AF06F8
:0105E50022F3
:0605E600120344FD7F0931
:1005EC00C2A5C2A4EF25E0547EFF7E08EF30E703DE
:1005FC00D38001C392A3D2A5EF25E0FFC2A5DEEC08
:10060C007E08ED30E703D38001C392A3D2A5ED257C
:0A061C00E0FDC2A5DEECD2A4D2A5D9
:0106260022B1
:0E06F900120738E4FD7F011205EC7D807F0AB8
:0D0707001205A3AE07AF04EB4EFD0205EC9A
:0E0738001205A3AE07AF04EBF45EFD0205EC64
:04000E007B007F0CE8
:080012008F268B278A2889291B
:10001A007531FEE4F532F533E52624F4600C24FE4E
:10002A00700E75321275331080067532777533305B
:10003A00E5324480FD7F021205EC7D807F041206C2
:10004A00F9E4F535F536C3E536952AE535940050D9
:10005A0019AB27AA28A9298536828535831205E690
:10006A000536E53670E0053580DCAD267F011205E0
:10007A00ECE526B40C077D807F0D12070775350263
:10008A007536587F041205A98F34E5361536700285
:10009A001535E53645356009E53420E00455336009
:1000AA00E27D807F0D120738E5364535700302017F
:1000BA00677F061205A9EF541B6003020164F5313C
:1000CA00E534553230E0037531FFE526640C6003F0
:1000DA000201677F0A1205A98F347F0C1205A9EF66
:1000EA005407FD6021E53424FFFFE434FFFEEF7876
:1000FA0003C333CE33CED8F97C002DFFEC3EAB2EB2
:10010A00AA2FA930800FE53475F008A4FFAB2EAAF8
:10011A002FA930E5F08FF01203A5E534700375348A
:10012A0001E534D394124003753412E4F535F536FB
:10013A00C3E5369534E535940050227F091205A9A6
:10014A00AB2BAA2CA92D853682853583EF12038322
:10015A000536E53670DA053580D67531FE7D807F45
:0D016A000C120707E4FD7F011205ECAF3118
:010177002265
:100726007F141205A9EF540370077D037F14120787
:0107360007BB
:01073700229F
:070003007D037F14020738A2
:080544008B228A2389248D25F6
:10054C007D047F051206F9E4FCECC395255011AB34
:10055C0022AA23A9248C827583001205E60C80E95B
:10056C007D037F011205EC7CFF7F051205A91CECB5
:10057C006004EF30E2F37F221205A9AB26AA27A96B
:10058C0028EF1203717F211205A9AB26AA27A928EF
:07059C00900001EF02038350
:10066500751050E4F511F526752700752812FB7AEB
:100675000079107D02120544752A04752B00752C2E
:1006850000752D10752E00752F0075300E7B007AC4
:0C0695000079107F0C1200128F0D7F0006
:0106A1002236
:030000000203D820
:0C03D800787FE4F6D8FD75814D02041F0B
:10034400BB010CE58229F582E5833AF583E022506E
:1003540006E92582F8E622BBFE06E92582F8E222B8
:0D036400E58229F582E5833AF583E49322D2
:10037100BB010689828A83F0225002F722BBFE016B
:02038100F32265
:10038300F8BB010DE58229F582E5833AF583E8F0B0
:10039300225006E92582C8F622BBFE05E92582C85C
:0203A300F22244
:1003A500BB010A89828A83F0E5F0A3F0225006F7A3
:0F03B50009A7F01922BBFE06F3E5F009F31922A0
:1003C400E86010ECA2E713FCED13FDEE13FEEF134F
:0403D400FFD8F0223C
:1003E400020178E493A3F8E493A34003F68001F2B6
:1003F40008DFF48029E493A3F85407240CC8C3331A
:10040400C4540F4420C8834004F456800146F6DFE8
:10041400E4800B010204081020408090075AE47E17
:10042400019360BCA3FF543F30E509541FFEE493DD
:10043400A360010ECF54C025E060A840B8E493A3A4
:10044400FAE493A3F8E493A3C8C582C8CAC583CACF
:10045400F0A3C8C582C8CAC583CADFE9DEE780BE87
:01075D00009B
:00000001FF
